:100000000C9434000C9449000C9449000C94490061
:100010000C9449000C9449000C9449000C9449003C
:100020000C9449000C9449000C9449000C9449002C
:100030000C9449000C9449000C9449000C9449001C
:100040000C9449000C9449000C9449000C9449000C
:100050000C9449000C9449000C9449000C944900FC
:100060000C9449000C94490011241FBECFEFD8E036
:10007000DEBFCDBF11E0A0E0B1E0E6EDF8E002C0E8
:1000800005900D92A031B107D9F70E9416010C948A
:1000900069040C940000089588274C9983959091E9
:1000A0000001981302C080E008958093000181113F
:1000B000FACF8FE79EE30197F1F700C000004D9B58
:1000C00002C081E008958FEF089595B1907F95B9B2
:1000D00084FD289A85FD299A86FD2A9A87FD2B9A08
:1000E0005B9A85E08A95F1F700005B9885E08A9538
:1000F000F1F700000895CF93C82F5A98807F0E948F
:1001000065008C2F8295807F0E94650087EC90E0CF
:100110000197F1F700C00000C150C23030F48FE306
:100120009FE10197F1F700C00000CF910895CF93B0
:10013000C82F5A9A807F0E9465008C2F8295807FFD
:100140000E94650087EC90E00197F1F700C0000085
:10015000CF91089581E00C947B00CF93DF9300D082
:10016000CDB7DEB730E419823A83FE01E80FF11D06
:100170008181860F80680F900F90DF91CF910C9452
:100180007B00CF93DF93EC018881811103C0DF9165
:10019000CF91089521960E949700F6CF8AB18C6086
:1001A0008AB984B18F6084B95A985B9885B1807F91
:1001B00085B92FEF80E792E0215080409040E1F731
:1001C00000C000005A9880E30E9465008FE19EE421
:1001D0000197F1F700C0000080E30E94650087E509
:1001E00092E00197F1F700C0000080E30E946500F3
:1001F00087EC90E00197F1F700C0000080E20E94D8
:10020000650087EC90E00197F1F700C0000088E2FC
:100210000E947B0088E00E947B0081E00E947B00BE
:1002200086E00E947B008CE00C947B0000D00F9253
:10023000CDB7DEB70E94CE000E944B0060E080E0A8
:100240000E94AD0081E091E00E94C10060E081E089
:100250000E94AD0088E091E00E94C10003E011E03F
:100260007E012FEFE21AF20A0E944C008115F9F08C
:10027000180F1D301CF11CE0912F990F990B9F93C3
:100280001F938BE091E09F938F931F920F93FF92A8
:10029000EF920E94620160E081E00E94AD00C70120
:1002A0000E94C1000FB6F894DEBF0FBECDBF8FE92C
:1002B0009FE00197F1F700C00000D6CF1116E4F2DD
:1002C00011E0DACFAEE0B0E0E8E6F1E00C944204F1
:1002D00086E08C832B893C8929833A838D899E898A
:1002E000813030E8930710F080E090E801978D832B
:1002F0009E83AE01475E5F4F6F89788DCE01019678
:100300000E9495014D815E8157FD0BC0EF81F885FC
:100310004E175F070CF4FA012B893C89E20FF31F9B
:1003200010822E96E2E00C945E04ABE0B0E0EBE9C4
:10033000F1E00C9435046C017B018A01FC0116820A
:100340001782838181FFDFC13AE0532EF6012381BA
:10035000F70123FD859123FF81917F01811509F428
:1003600037C1853239F423FD959123FF91917F01A7
:10037000953229F4B60190E00E949C03E7CF30E06B
:10038000912C612C712CF0E27F1640F59B32D9F054
:1003900058F49032D1F09332F1F09E3291F576FC20
:1003A00017C1689476F806C09D3291F09033C1F47D
:1003B000689470F8F70123FD959123FF91917F01D7
:1003C0009111E1CF28C0689471F8689472F8F2CF67
:1003D000689473F8EFCF689474F8ECCF77FC1BC087
:1003E00080ED890F8A30C8F676FE05C0959C800D99
:1003F0001124982EDFCF659C800D1124682E7F2A52
:10040000D9CF9C3619F4689477F8D4CF9C3409F48A
:1004100045C0983679F2892F8F7D8554833008F452
:100420003FC0933609F461C0933709F46BC093352C
:1004300009F477C0943619F0993609F0A4C0F80190
:1004400077FE9AC061917191819191918F01272DD1
:100450002F76822E97FF04C00E942A04689487F8A2
:100460002AE030E05E014FEFA41AB40AA5010E9411
:10047000CC03782E7A1886FECFC0882D8E7F791413
:1004800008F0C9C084FE1DC182FC11C12EEE82227B
:10049000B92C882D867809F4CBC00EC131E08ACF03
:1004A000311501F1085F1F4F8FE3898321E0822E10
:1004B000912C5E012FEFA21AB20AE89477F873FC30
:1004C00003C086149104F0F18114910409F041C035
:1004D000611409F43BCFB60180E290E00E949C03D6
:1004E0006A94F6CF0C5F1F4FDFCFF80180818983BC
:1004F0000E5F1F4F91E0892E912C5E01FFEFAF1A26
:10050000BF0ADBCFF801A190B1908F01692D70E097
:1005100076FC02C06FEF7FEFC5010E9491034C0192
:10052000CCCFF801A190B1908F01692D70E076FCDD
:1005300002C06FEF7FEFC5010E9486034C016894F3
:1005400077F8BDCFB60180E290E00E949C036A94E8
:10055000B8CFF50177FC859177FE81915F01B601F7
:1005600090E00E949C0381E0611001C080E0681A65
:10057000F1E08F1A9108A8CF61917191872F880FB0
:10058000880B982F63CF9537C9F4872CE89484F8AB
:100590002AE030E0F80187FE39C0619171918191C4
:1005A00091918F015E01FFEFAF1ABF0AA5010E9472
:1005B000CC03782E7A18E89487F85DCF872D897F51
:1005C000882E903799F058F49835A9F09F36D9F0D5
:1005D000F601868197812B96EFE00C9451049837B1
:1005E000B9F774FC05C020E130E0D4CF689484F8FA
:1005F000689482F8F8CF74FE03C0E72DE6608E2E73
:1006000020E132E0C7CF28E030E0C4CF61917191A2
:1006100080E090E0C6CF882EB72C84FE3ACFFE0152
:10062000E70DF11D8081803309F044C049EE84223A
:1006300083FC0EC080FE51C0972CB61418F4960CA3
:100640009B18B62C862D8B196B1408F480E0B80E1D
:10065000B61408F044C06B1884FE43C0B60180E3B2
:1006600090E00E949C0382FE09C088E590E081FC36
:1006700002C088E790E0B6010E949C037914E0F183
:100680005E018FEFA81AB80A7A9482E0882E912C26
:100690008C0E9D1E870C911CF40182914F01B601B6
:1006A00090E00E949C038A149B04B1F711CFB92CEF
:1006B000882EB5CF82FC02C0B394BACFB394B39462
:1006C000B7CFB92C882EE5CEB60180E290E00E942B
:1006D0009C03A394A614C0F3B5CFAB2CFBCF612C25
:1006E000BBCF882D867851F280E281FC8BE287FCBB
:1006F0008DE2B60190E0C0CFB60180E390E00E94A9
:100700009C039A94BBCF8FEF9FEF65CFFC010590C0
:10071000615070400110D8F7809590958E0F9F1F03
:100720000895FC016150704001900110D8F7809548
:1007300090958E0F9F1F08950F931F93CF93DF9374
:10074000182F092FEB018B8181FD09C00FEF1FEFDF
:10075000812F902FDF91CF911F910F91089582FFEC
:1007600014C02E813F818C819D81281739073CF46C
:10077000E881F981CF0101968883998310838E8166
:100780009F8101968E839F83E3CFE885F985812F32
:100790000995892BA1F3DACFFA01AA27283051F164
:1007A000203181F1E8946F936E7F6E5F7F4F8F4FA2
:1007B0009F4FAF4FB1E03ED0B4E03CD0670F781F01
:1007C000891F9A1FA11D680F791F8A1F911DA11DE6
:1007D0006A0F711D811D911DA11D20D009F468941F
:1007E0003F912AE0269F11243019305D3193DEF6C7
:1007F000CF010895462F4770405D4193B3E00FD07D
:10080000C9F7F6CF462F4F70405D4A3318F0495D67
:1008100031FD4052419302D0A9F7EACFB4E0A6954A
:100820009795879577956795BA95C9F7009761056C
:10083000710508959B01AC010A2E069457954795C2
:1008400037952795BA95C9F7620F731F841F951FB7
:10085000A01D089590958095709561957F4F8F4F5D
:100860009F4F08952F923F924F925F926F927F9287
:100870008F929F92AF92BF92CF92DF92EF92FF92B0
:100880000F931F93CF93DF93CDB7DEB7CA1BDB0B5C
:100890000FB6F894DEBF0FBECDBF09942A88398801
:1008A00048885F846E847D848C849B84AA84B98408
:1008B000C884DF80EE80FD800C811B81AA81B98114
:1008C000CE0FD11D0FB6F894DEBF0FBECDBFED0128
:0608D0000895F894FFCF2B
:1008D6000156616C75653A002031002532640000CE
:00000001FF
